:10000000F8FF002011040000531D0000531D0000E4
:10001000531D0000531D0000531D0000531D000020
:10002000531D0000531D0000531D0000531D000010
:10003000531D0000531D0000531D0000531D000000
:10004000531D0000531D0000531D0000531D0000F0
:10040000FFFFFFFFFFFFFFFFFFFFFFFFFEFFFFFFFD
:1004100062B605F0D5FFFEE710B5DFF8C40700218E
:100420000180DFF8E00C00210180DFF8B80700212F
:100430000180DFF8B40700210180DFF8B007002158
:100440000180DFF8AC07002101800420040064B2C1
:10045000012C49DB64B2DFF89C0710EB440030F854
:10046000020C64B2DFF88C1721F8140064B2DFF8D4
:10047000880710EB440030F8020C64B2DFF87817FC
:1004800021F8140064B2DFF8740710EB440030F870
:10049000020C64B2DFF8641721F8140064B2DFF8CC
:1004A000600710EB440030F8020C64B2DFF850171C
:1004B00021F8140064B2DFF84C0710EB440030F868
:1004C000020C64B2DFF83C1721F8140064B2DFF8C4
:1004D000380710EB440030F8020C64B2DFF828173C
:1004E00021F81400641EB2E700210D2000F0AFFFD8
:1004F000DFF80017088000212A2000F0A8FFDFF8AD
:10050000F81608800021092000F0A1FFDFF8EC16A2
:10051000088000212C2000F09AFFDFF8E416088004
:100520000021082000F093FFDFF8D8160880002192
:100530002D2000F08CFFDFF8D0160880DFF8B4061D
:1005400000218181DFF8B00600218181DFF8AC064F
:1005500000218181DFF8A80600218181DFF8A4064F
:1005600000218181DFF8A0060021818100200400A4
:1005700064B2052C67DADFF87C06808964B2D4F1B6
:10058000050164B2DFF86C2632F81420514311FAE9
:1005900080F0DFF860168881DFF85C06808964B23D
:1005A000D4F1050164B2DFF8502632F8142051432B
:1005B00011FA80F0DFF840168881DFF84006808964
:1005C00064B2D4F1050164B2DFF8302632F81420A9
:1005D000514311FA80F0DFF824168881DFF82006F5
:1005E000808964B2D4F1050164B2DFF8142632F8D0
:1005F0001420514311FA80F0DFF804168881DFF8E7
:100600000406808964B2D4F1050164B2DFF8F425F0
:1006100032F81420514311FA80F0DFF8E815888190
:10062000DFF8E405808964B2D4F1050164B2DFF833
:10063000D82532F81420514311FA80F0DFF8C8159C
:100640008881641C94E7DFF8AC0580890F2190FB5A
:10065000F1F0DFF8A0158881DFF89C0580890F2173
:1006600090FBF1F0DFF890158881DFF89005808924
:100670000F2190FBF1F0DFF884158881DFF8800509
:1006800080890F2190FBF1F0DFF874158881DFF885
:10069000740580890F2190FBF1F0DFF868158881DF
:1006A000DFF8640580890F2190FBF1F0DFF8581521
:1006B0008881DFF840058089DFF828150880DFF899
:1006C00038058089DFF820150880DFF8300580893B
:1006D000DFF818150880DFF828058089DFF8101585
:1006E0000880DFF820058089DFF8F4140880DFF83F
:1006F00018058089DFF80C1A0880DFF8F409DFF8A4
:10070000E414B1F900100180DFF8E409DFF8D8142F
:10071000B1F900104180DFF8D809DFF8D014B1F941
:1007200000108180DFF8C809DFF8C414B1F90010A7
:10073000C180DFF8BC09DFF8A814B1F9001001810D
:10074000DFF8AC09DFF8BC19B1F90010418110BD28
:1007500010B5FFF761FEDFF89809B0F9000000F06E
:10076000CBFE02000B00DFF88C49D4E9000100F059
:10077000DBFE09D2DFF87809B0F9000000F0BCFE1A
:10078000DFF87029C2E90001DFF86409B0F902005E
:1007900000F0B2FE02000B00DFF85C49D4E9000172
:1007A00000F0C2FE09D2DFF84809B0F9020000F0FB
:1007B000A3FEDFF84429C2E90001DFF83409B0F9EB
:1007C000040000F099FE02000B00DFF83049D4E984
:1007D000000100F0A9FE09D2DFF81409B0F9040005
:1007E00000F08AFEDFF81429C2E90001DFF80009F1
:1007F000B0F9060000F080FE02000B00DFF80049AF
:10080000D4E9000100F090FE09D2DFF8E408B0F965
:10081000060000F071FEDFF8E828C2E90001DFF809
:10082000D008B0F9080000F067FE02000B00DFF806
:10083000D848D4E9000100F077FE09D2DFF8B0080B
:10084000B0F9080000F058FEDFF8BC28C2E900014A
:10085000DFF89C08B0F90A0000F04EFE02000B0021
:10086000DFF8A848D4E9000100F05EFE09D2DFF805
:100870008008B0F90A0000F03FFEDFF89028C2E9D6
:10088000000110BD30B5D748008800F03FFEDFF80A
:100890006448D4E9002300F06FFE0022DFF87038CE
:1008A00000F08EFF01F05EF8CE490880CE48008847
:1008B00000F02CFEDFF84048D4E9002300F05CFE95
:1008C0000022DFF84C3800F07BFF01F04BF8C649FE
:1008D0000880C648008800F019FEDFF82048D4E9F7
:1008E000002300F049FE0022DFF8243800F068FF02
:1008F00001F038F8BD490880BD48008800F006FEC8
:10090000DFF8FC47D4E9002300F036FE0022DFF8D0
:10091000003800F055FF01F025F8B5490880B048CF
:10092000008800F0F3FDDFF8E047D4E9002300F091
:1009300023FE0022DFF8D83700F042FF01F012F862
:10094000A7490880DFF8BC07008800F0DFFDDFF86A
:10095000BC47D4E9002300F00FFE0022DFF8B037D7
:1009600000F02EFF00F0FEFFDFF898170880DFF898
:1009700080079C49B1F900100180DFF874079A499B
:10098000B1F900104180DFF868079849B1F900100B
:100990008180DFF85C079649B1F90010C180DFF86B
:1009A00050078F49B1F900100181DFF84407DFF8E3
:1009B0005417B1F9001041818A4800888A49098892
:1009C00011FA80F000F098FDDFF84827C2E9000135
:1009D0008448008884490988401A00F08DFD31F070
:1009E0000041DFF83427C2E90001804800888049CF
:1009F000098811FA80F000F07FFDDFF82027C2E9B6
:100A000000017A4800887A490988401A00F074FD8C
:100A1000DFF80C27C2E9000171480088DFF8E4160E
:100A2000098811FA80F000F067FDDFF8F826C2E9C6
:100A300000016B480088DFF8CC160988401A00F0E6
:100A40005BFDDFF8E426C2E90001DFF8D426D2E935
:100A500000010022DFF8D43600F066FD10D2DFF886
:100A6000C026D2E900015FF0FF32DFF8C43600F0A3
:100A7000A5FF05D8DFF8A80600220023C0E900235F
:100A8000DFF89C06D0E900230020DFF8841600F090
:100A900097FE04000D00DFF88406D0E90023002053
:100AA000DFF8901600F0A2FF02000B0020002900E2
:100AB00000F062FDDFF86826C2E90001DFF8780681
:100AC000DFF87816D1E90023C0E90023DFF86C06CF
:100AD000DFF86C16D1E90023C0E90023DFF86006D7
:100AE000DFF86016D1E90023C0E90023DFF85406DF
:100AF000DFF82C16D1E90023C0E90023DFF8F00568
:100B000030BDDFF844060022DFF82836C0E90023B4
:100B1000DFF834060022DFF81C36C0E902237047F4
:100B20002DE9F04D80460FFA88F8404600F0E4FCCD
:100B3000DFF81426C2E90601DFF80C26D2E900012D
:100B4000DFF804C6DCE9062300F03AFE82468B4655
:100B5000DFF8F425D2E90601DFF8ECC5DCE904236F
:100B600000F0B8FFDFF8E0C5DCE9022300F028FE62
:100B700006000F000020DFF8D41552465B4600F057
:100B800035FF32003B0000F031FF04000D00200073
:100B900029000122DFF8B83500F010FF04D800204A
:100BA000DFF8AC1504000D00200029000022DFF85A
:100BB000A43500F0B9FC04D20020DFF89815040039
:100BC0000D00DFF88425DFF88035D3E90601C2E99E
:100BD00004012000290000F0C5FE80B2BDE8F08DC0
:100BE000081AFF1F0C1AFF1F0E1AFF1F101AFF1FF3
:100BF000121AFF1F080FFF1F1C0FFF1F300FFF1FD0
:100C0000440FFF1FE00EFF1FF40EFF1FF8B5002476
:100C10000025DFF84405008828284EDADFF83C0577
:100C20000088282849DADFF838050088282844DABF
:100C3000DFF8D004008828283FDADFF82805D0E95B
:100C4000002314001D002000290000F08BFE00B2DC
:100C5000FFF766FF00F05AFCDFF80C25C2E900013F
:100C6000DFF80405D0E900230020DFF8001500F0CC
:100C7000BDFE0022002300F0A1FE07D8DFF8E80443
:100C80000022DFF8CC34C0E9002327E2DFF8D804E3
:100C9000D0E900230020DFF8D81400F0A7FE0022DE
:100CA000002300F041FC00F21982DFF8BC040022AE
:100CB000DFF8A034C0E9002310E2DFF86024D2E9B5
:100CC00000010122DFF8AC3400F078FE00F29681DA
:100CD000DFF84824D2E900010122DFF89C3400F05B
:100CE0006DFE07D8DFF860040022DFF84834C0E961
:100CF00000232CE1DFF82424D2E900010122DFF8EF
:100D00007C3400F05BFE08D8DFF83C045FF033323F
:100D1000DFF86C34C0E9002319E1DFF80024D2E9E0
:100D200000010122DFF8E83300F048FE08D8DFF8C0
:100D30001804DFF85024DFF85034C0E9002306E13E
:100D4000DFF8D823D2E900010122DFF8403400F0B7
:100D500035FE07D8DFF8F00300225FF08043C0E9DA
:100D60000023F4E0DFF8B423D2E900010122DFF828
:100D7000203400F023FE08D8DFF8CC035FF03332D4
:100D8000DFF81034C0E90023E1E0DFF89023D2E976
:100D900000010122DFF8003400F010FE08D8DFF86F
:100DA000A8035FF06632DFF8F433C0E90023CEE039
:100DB000DFF86823D2E900010122DFF8E43300F014
:100DC000FDFD08D8DFF88003DFF8B823DFF8D4335F
:100DD000C0E90023BBE0DFF84423D2E9000101228F
:100DE000DFF8C43300F0EAFD08D8DFF85C03DFF871
:100DF000BC23DFF8BC33C0E90023A8E0DFF81C23E4
:100E0000D2E900010122DFF86C3300F0D7FD07D8EA
:100E1000DFF834030022DFF89C33C0E9002396E0BA
:100E2000DFF8F822D2E900010122DFF88C3300F06C
:100E3000C5FD08D8DFF81003DFF84823DFF87C335E
:100E4000C0E9002383E0DFF8D422D2E900010122C7
:100E5000DFF86C3300F0B2FD08D8DFF8EC025FF089
:100E60003332DFF86033C0E9002370E0DFF8AC22F2
:100E7000D2E900010122DFF8503300F09FFD08D8CD
:100E8000DFF8C402DFF82423DFF84033C0E9002391
:100E90005DE0DFF88822D2E900010122DFF830337B
:100EA00000F08CFD08D8DFF8A0025FF06632DFF8B2
:100EB0002433C0E900234AE0DFF86022D2E90001D0
:100EC0000122DFF8143300F079FD08D8DFF878024A
:100ED0005FF06632DFF8FC32C0E9002337E0DFF86C
:100EE0003C22D2E900010122DFF8F03200F066FD79
:100EF00007D8DFF854020022DFF8E432C0E900230B
:100F000025E0864AD2E900010122DFF8D83200F05C
:100F100055FD06D88C480022DFF8CC32C0E900230A
:100F200015E07E4AD2E900010122DFF8C03200F06C
:100F300045FD06D884480022DFF8B432C0E900231A
:100F400005E081480022DFF8AC32C0E90023744894
:100F5000D0E900235FF03330DFF89C1200F030FC62
:100F600006000F00774AD2E90001DFF8CCC1DCE9C6
:100F7000002300F0AFFD834ADFF8803200F020FC50
:100F800032003B0000F032FD654AC2E900016448CE
:100F9000D0E90023DFF86802DFF8681200F010FCE7
:100FA0005F4ED6E9002300F00BFC06000F005C4802
:100FB000D0E900239448954900F002FC02000B00A0
:100FC0003000390000F086FD914A924B00F00EFD92
:100FD00000224F4B00F0F4FB04000D006148C0E913
:100FE00000452000290000F0BDFC00B2FFF798FD8D
:100FF00000F08CFA5C4AC2E900016FE0494AD2E98C
:10100000000100225C4B00F08FFA67D24E480022AC
:10101000814BC0E90023524800883A490988884238
:1010200028D23E48D0E900237C487D4900F0C8FB27
:101030003A4ED6E9002300F0C3FB06000F00374804
:10104000D0E900237748784900F0BAFB02000B0092
:101050003000390000F03EFD744A754B00F0C6FCCC
:101060000022744B00F0ACFB04000D003D48C0E9C9
:10107000004527E02948D0E900236848684900F086
:101080009FFB264ED6E9002300F09AFB06000F00D6
:101090002248D0E900236348634900F091FB020035
:1010A0000B003000390000F015FD604A604B00F085
:1010B0009DFC0022604B00F083FB04000D002948DA
:1010C000C0E900452000290000F04CFC00B2FFF709
:1010D00027FD00F01BFA244AC2E90001224AD2E9A6
:1010E000000100F055FC554949688861F4BD0000D5
:1010F000580FFF1FD80BFF1FE00BFF1FE80BFF1F50
:10110000F00BFF1F0A1AFF1F480EFF1F500EFF1F94
:1011100000005940680EFF1F580EFF1F700EFF1F82
:10112000600EFF1F780EFF1FA00EFF1F000014406F
:10113000FFFF13C00000F03F980EFF1F900EFF1F2F
:10114000880EFF1F800EFF1FB00EFF1F0088B340E8
:10115000002CBA4000C8A940101AFF1F121AFF1F26
:10116000081AFF1FD00EFF1FA80EFF1F00B4B4C047
:10117000005CB2C00080514000805B4000405A409B
:101180003333F33F9A9999999999F93F00C05740A1
:1011900000805640333303400040554066660640A9
:1011A000000054409999094000C05240CDCCCCCCAD
:1011B000CCCC0C40000010400040504099991140A8
:1011C00000004E403333134000804B40CCCC1440E1
:1011D00000004940666616400080464000004440DA
:1011E000000018400080414000001C4000003E40CC
:1011F00000002240000024403333E33F9999D93F57
:101200000EDD89E5D872053F63EE5A423EE8B93FEC
:1012100054E3A59BC420D0BF000034409E1D78CE6F
:10122000793A25BF61342BDB87BCAD3F1F85EB517D
:10123000B89E24C0000079C000007940200BFF1F39
:1012400038B5040064B26511EDB2002D02D0012D55
:1012500011D021E0A348006850F00060A149086067
:10126000A148006830F090009F4908609E489E4960
:101270000968016014E09D48006850F000609B49D7
:1012800008609948006830F4104097490860964813
:1012900095490968016003E03321954800F0EFFCAF
:1012A00064B22000002800F08980012800F08680C8
:1012B000032800F0838008284ED0092851D00A283E
:1012C00054D00B2857D00C285AD00D285DD00E28AA
:1012D00060D00F2863D0102870D0112864D0122855
:1012E00067D013286AD0142868D01A2866D01D2821
:1012F00064D01E2862D0202861D021285FD0232806
:101300005DD024285CD025285FD0262862D02728ED
:1013100065D0282868D029286BD02A286ED02B28A1
:1013200071D02C2874D02D2877D02E287AD02F2851
:101330007DD0302800F0858031287DD0322800F023
:10134000808033287DD034287BD03A2879D03D283E
:1013500077D03E2875D075E00021202000F022FDD6
:1013600074E00021212000F01DFD6FE00021072026
:1013700000F018FD6AE00021082000F013FD65E090
:101380000021222000F00EFD60E00021232000F06B
:1013900009FD5BE00021402000F004FD56E0002143
:1013A000412000F0FFFC51E00021982000F0FAFC01
:1013B0004CE00021992000F0F5FC47E046E045E0D4
:1013C0000021802000F0EEFC40E00021812000F0B0
:1013D000E9FC3BE00021822000F0E4FC36E0002143
:1013E000832000F0DFFC31E00021202000F0DAFC57
:1013F0002CE00021212000F0D5FC27E00021242052
:1014000000F0D0FC22E00021252000F0CBFC1DE004
:101410000021262000F0C6FC18E00021272000F063
:10142000C1FC13E000212A2000F0BCFC0EE00021EA
:101430002B2000F0B7FC09E00021112000F0B2FCE5
:1014400004E003E09A212A4800F019FC31BDF8B508
:1014500004000D0064B266110027290049B2200083
:1014600040B200F01CF876B2224850F8260000681E
:101470000006F8D576B21F4850F82600006907002C
:1014800076B21C4850F82600006830F0800076B232
:10149000184951F826100860380080B2F2BD30B407
:1014A00040B2421110F01F0352B2124C54F82240C5
:1014B00049B28D0015F00C0555F05005A56052B2EB
:1014C0000C4C54F822400425E56052B2094C54F803
:1014D0002240DBB213F01F0555F04005256030BCFB
:1014E000704700003C800440188004403080044075
:1014F000C86900001004FF1F010040F10980F44694
:10150000404200F005F851F000416047010000BF83
:1015100009D0B0FA80F18840C91CC1F58461090581
:1015200001EBD021400570474FF4001C1CEB410F2C
:1015300094BF1CEB430F09E041EA030C50EA4C0C4A
:1015400052EA0C0C03D2994208BF9042704714BF74
:101550008B428242704750F8041B61B150F8042B53
:10156000D30744BFA9F101039A18002342F8043BB2
:10157000091FFAD1EFE77047F0B540F2FF7581EA35
:10158000030C0CF0004C15EA11541DBF15EA13575B
:10159000AC42AF42E5E0BC41C1F31301C3F3130316
:1015A000801A994143F4801304D2641E40004941DB
:1015B00080185941C90241EA5051B1FBF3F603FBCF
:1015C0001611A2FB0675D7EBC020A94102D2761EE8
:1015D00080185941C90241EA5051B1FBF3FE03FBA7
:1015E0001E11A2FB0E75D7EBC020A94103D2AEF1AC
:1015F000010E80185941890241EA9051760546EA68
:101600008E2EB1FBF3F603FB1611A2FB0675D7EB8A
:101610008020A94102D2761E80185941C90241EAB0
:1016200050514EEA060EB1FBF3F603FB1611A2FB76
:101630000675D7EBC020A94102D2761E8018594109
:10164000C90241EA5051B1FBF3F703FB1711A2FBAA
:101650000735D3EBC020A94167F100070CBF00425A
:1016600047F0010766F3D5274FEA1E31B80814F595
:10167000806412DDBD0775F1004250EB0E5051EB56
:10168000045111F5801F5CBF41EA0C01F0BD4CF024
:101690007F6141F0E0410020F0BDBD076D0840EAE8
:1016A0000E5041F48011D4F10104B4F120060ADA9D
:1016B000C4F120060200E04001FA06F3E1401843BD
:1016C000B24015430EE0342C13DCC6F1200445EA89
:1016D00040056D0820FA06F2154321FA06F0A140F4
:1016E0000D43002175F1004250F1000051EB0C0157
:1016F000F0BD00205FEA0C01F0BDCFB992185B414C
:10170000B3FA83F704BFB2FA82F6BF190B3FB7F101
:1017100020062FBF02FA06F3BB40C7F1200622FACB
:1017200006F638BF3343BA401CB1E419641E33E7F0
:101730007F4231F00041B1FA81F404BFB0FA80F683
:10174000A4190B3CB4F120062FBF00FA06F1A1400A
:10175000C4F1200620FA06F638BF3143A0403C1BF6
:101760001AE7AC421ABF05EA1357AF4212E050EA3B
:1017700041061CBF52EA4306BFE750EA4107304624
:1017800061461CBF41EA0551F0BD52EA430C08BF57
:10179000C143F0BD00204FF4001616EB410F98BF77
:1017A00016EB430F08BF16EB410F24BFC14305E002
:1017B00016EB430F0CBF61464CEA0551F0BD00002B
:1017C000B0B581EA030C0CF0004C40F2FF7515EA4D
:1017D00011541DBF15EA1357AC42AF4239E0E4196A
:1017E00023EA455343F48013C90241F0004141EA22
:1017F000505EC7021100A7FB020200284FF0000054
:10180000EEFB01204FF00001E3FB072118BF42F07F
:101810000102401800214941E3FB0E01A4F5806458
:101820000F0302D252004041494154F101046CDDE2
:10183000470872F1004250F1000051EB0451A1F54C
:1018400080115CBF41EA0C01B0BD4CEA055100209B
:10185000B0BD05EA1357AC4214BFAF4241E050EAB5
:10186000410E1CBF52EA430E02E061460020B0BDAB
:1018700024423C441BD15FEA070EF6D0090302BFA5
:1018800001460020AEF1140EB1FA81F7AEEB070469
:1018900001FA07FE0C37C7F1200100FA07F7C8402C
:1018A0004EEA000E23EA455343F48013A2E733F0D7
:1018B0000043B3FA83F704BFB2FA82FE77440B3FCA
:1018C000E41BB7F1200E2FBF02FA0EF3BB40C7F1A5
:1018D000200E22FA0EFE38BF43EA0E03BA40641C03
:1018E00082E750EA410E14BF52EA430E6FF0000146
:1018F0004FF4001717EB430F8ABF194617EB410F40
:10190000B5E74CEA05510020B0BDD4F10104B4F1B3
:1019100020070FDAC4F12007520828BF42F0010265
:1019200010FA07F501FA07F7E1BF2A43E040384310
:10193000E1400FE0352C98DCC7F1200452EA400268
:1019400020FA07F218BF42F0010231FA07F0A14075
:101950000A43002172F1004250F1000051EB0C01EA
:10196000B0BD0000F446400D40EAC120490006D257
:1019700000F014F8004248BF6FF00040604700F0EC
:101980000DF84FF0004188428CBF08464042604746
:10199000400D40EAC120490080F00D8040F0004039
:1019A000490DA1F58061491C05D4D1F11F0154BF37
:1019B000C840C01770474FF0000070474FF4001C3C
:1019C0001CEB410F94BF1CEB430F09E041EA030CF1
:1019D00050EA4C0C52EA0C0C03D28B4208BF8242F4
:1019E000704714BF994290427047000070B44FF0A6
:1019F000004591EA030C44BF6B4000F075B800BF8E
:101A0000841A71EB030603D2001BB1411219734112
:101A10004FF4001C1CEB410F34BF7CEB430443E04C
:101A20000C0DA4EB1356352E50DC45EAC323DB0A1C
:101A300045EAC121C912B6F120050DDD63FA05F6AC
:101A4000EB4086EA0305124218BF45F00105C018B5
:101A500051F100010CD213E062FA06F5F240554054
:101A6000F3415A40B340F3405A408018594107D3DC
:101A700049085FEA30005FEA350528BF45F00105F7
:101A800001F58011420875F1004250F1000041EB70
:101A9000045170BC4FF4001C1CEB410F38BF704761
:101AA0000020090D090570471CEB410F10D252EAC6
:101AB00043060BD0BCEB410F05D80C0DAB43661EA3
:101AC000342EB5DD02E0AB438018594170BC70473D
:101AD00070BC704770B44FF0004591EA030F44BFEB
:101AE0006B40FFF78DBF00BF841A71EB030604D271
:101AF0006E40001BB141121973414FF4001C1CEBE6
:101B0000410F34BF7CEB430684E00C0DA4EB13566D
:101B1000362E7DDC012E43DC45EAC32343EA5253D3
:101B200012BFD20292025B08240545EAC12141EAB4
:101B30005051D2EBC020994125D407D1B0FA80F69C
:101B400010FA06F164D00020203608E0B1FA81F6E0
:101B5000B140C6F1200220FA02F21143B0404FEA30
:101B6000F474B4EB465434F001064FEA74040AD816
:101B7000D6F50016760D04F00044F04061FA06F246
:101B80005040F1404840C00A40EA415021F0004135
:101B900028BF5FEA500550F1000044EBD12137E047
:101BA00045EAC323DB0A45EAC121C90AB6F120058B
:101BB0000EDD42EA0242120CC5F1200603FA06F6D7
:101BC000EB4042EA06056D42984161F100010DE0EB
:101BD00062FA06F5F240554063FA06FC82EA0C020E
:101BE000F3405A406D42904161EB030111F4801FB4
:101BF00005D1641E620502D06D004041494121F4C7
:101C00008011430875F1004350F1000041EB04518D
:101C100070BC70471CEB410F15D223F0004352EA11
:101C200043060BD04FEA4C0CBCEB410F04D80C0D13
:101C3000661E342EB7DDEBE7801A994150EA410663
:101C400008BF0021E4E708BF1CEB430F28BF6FF07B
:101C50000001DDE7DFF800F0850CFF1FDFF800F082
:101C6000A90CFF1FBFF34F8F4648006810F4E060D7
:101C70004549084343490860BFF34F8FFEE738B535
:101C800004000D00002000F0E5F82A0021003F4884
:101C900000F018F9002000F0FAF84FF47A7000F024
:101CA00053F9F2E738B504000D00210049B20520D0
:101CB00000F068FA200032BD10B50024042000F0C6
:101CC0007BFA042000F0AEFA002841D1002000F099
:101CD000C1F8042000F0A6FA012801D10120040077
:101CE000002000F0D4F82A4800F0ECF84FF4FA7025
:101CF00000F02AF9E4B2012CEBD1042000F092FAB2
:101D00000028E6D1042000F08DFA002806D100203A
:101D100000F0BDF8642000F017F9F3E7042000F0AC
:101D200081FA012806D1002000F0B1F8322000F03D
:101D30000BF9F3E7174800F0C5F8FFF78BFF6420B5
:101D400000F002F90020FFF789FFFFF78BFFC0E7E3
:101D500010BD10B510480468012000F07BF8012088
:101D600000F095F8E4B20F200C4900FB0412E4B235
:101D700021000B4800F0A6F84FF47A7000F0E4F868
:101D8000EDE700000CED00E00400FA05086B000030
:101D9000F86B0000606B000004ED00E01804FF1F0A
:101DA0006469000010B4294A12684FF40073C0B28D
:101DB0004409A3401A43254B1A60C0B24211244B78
:101DC00053F82220012310F01F04A340C2F8A030D2
:101DD000C0B210F01F02C0B243111D4C54F82330A2
:101DE00043F8221010BC704710B4184A12684FF420
:101DF0000073C0B24409A3401A43144B1A60C0B226
:101E00004211134B53F82220012310F01F04A3406A
:101E1000C2F8A03031F4E061C0B210F01F02C0B2CD
:101E200043110B4C54F8233053F8222012F4E06293
:101E30001143C0B210F01F02C0B24311044C54F859
:101E4000233043F8221010BC704700003880044053
:101E5000A00BFF1F10B5040064B2042C07DA0122A6
:101E6000012164B21648205C00F0F4F90EE0042071
:101E700004002000441E40B2002807D001220121A6
:101E800064B20F48205C00F0E5F9F2E710BD10B530
:101E9000040064B2042C05DA64B20948205C00F046
:101EA00030FA0CE0042004002000441E40B2002858
:101EB00005D064B20248205C00F023FAF4E710BDBC
:101EC000F80BFF1F0EB400B582B003A900910246C3
:101ED00000AB0121034878440A3000F04FFA06BCF9
:101EE0005DF810FBF14C000030B4134C246854F042
:101EF0008074114D2C60114C246854F001040F4D76
:101F00002C600F4C246821000E4C24684FF47A7525
:101F100094FBF5F404FB00F423005C1822008A42D1
:101F200003D2074C2468A242FBD3054C2468944298
:101F3000FBD330BC70470000FCED00E0001000E077
:101F4000041000E0AC19FF1F10B504002000441E6F
:101F5000002804D04FF47A70FFF7C6FFF6E710BDF3
:101F60002DE9F84304000D0064B2002C08D0022CC7
:101F70002CD018D3042C4FD03BD3052C5FD071E06C
:101F8000DFF81C02006850F48060DFF8141208606B
:101F90004FF440716620FFF705FF4FF44071672052
:101FA000FFF700FF5EE0DFF8F801006850F4006022
:101FB000DFF8EC1108604FF440714320FFF7F2FEA8
:101FC0004FF440714420FFF7EDFE4BE0DFF8D00105
:101FD000006850F48050DFF8C81108604FF4407179
:101FE0006320FFF7DFFE4FF440716220FFF7DAFE57
:101FF00038E0DFF8AC01006850F40050DFF8A011C1
:1020000008604FF440715020FFF7CCFE4FF4407150
:102010005120FFF7C7FE25E0DFF88801006850F483
:102020008060DFF8801108604FF440714E20FFF7A8
:10203000B9FE4FF440714F20FFF7B4FE12E0DFF815
:102040006401006850F40060DFF8581108604FF434
:1020500040718920FFF7A6FE4FF440718820FFF7FA
:10206000A1FEFFE764B2DFF8400150F82400C07819
:1020700010F0F30064B2DFF8301151F82410C8708A
:1020800064B2DFF8240150F8240064B2DFF81811BC
:1020900051F824108978817064B2002C02D064B2A7
:1020A000012C07D1DFF8040100684FF47A7148432E
:1020B000814606E0DFF8F80000684FF47A71484383
:1020C00081462801B9FBF0F00600B6B2B6F5005F14
:1020D00002DB41F6FF700600B9FBF5F0B6B2B0EBDB
:1020E00006100700BFB2202F04DBDF21DFF8C40099
:1020F000FFF7C5FD64B2DFF8B00050F824000078A7
:1021000010F0E0008046B6B2300A10F01F0050EA2E
:10211000080064B2DFF8901051F82410087064B21F
:10212000DFF8840050F82400467064B2DFF87800CD
:1021300050F82400807A10F0E000804664B2DFF8A6
:10214000680050F8240017F01F0151EA080181725D
:1021500064B2154850F82400007C50F0880064B246
:10216000114951F82410087464B20F4850F8240043
:10217000C07850F00C0064B20B4951F82410C870BC
:10218000BDE8F18340B2084A52F8202012791206C5
:10219000F8D540B2044A52F82020D17170470000AF
:1021A0003480044028800440C00BFF1FAC19FF1F7F
:1021B000B419FF1FB86A000010B5040064B2082CFF
:1021C0000DDA0022002164B22148205C00F042F8C0
:1021D000032164B21E48205CFFF706FE14E00820CD
:1021E00004002000441E40B200280DD0002200212F
:1021F00064B21748205C00F02DF8032164B2144843
:10220000205CFFF7F1FDECE710BD10B5040064B2EF
:102210000F48205C00F091F8002801D1002000E078
:10222000012010BD10B50400200040B2FFF7EDFF03
:1022300000280AD10A20FFF787FE200040B2FFF7EE
:10224000E4FF002801D1002000E0012010BD0000C3
:102250000C0CFF1F70B504000D0016004FF48071C8
:102260002000C0B2FFF79EFD6DB2002D11D1E4B287
:102270006011404951F82000E4B261113D4A52F822
:1022800021104969012214F01F039A4091434161D2
:1022900036E0E4B26011374951F82000E4B2611130
:1022A000344A52F821104969012214F01F039A4060
:1022B00011434161F6B2002E11D1E4B260112D49F3
:1022C00051F820000068012114F01F02914088435A
:1022D000E4B26111274A52F82110086010E0E4B21C
:1022E0006011244951F820000068012114F01F02F8
:1022F00091400843E4B261111E4A52F8211008606F
:1023000070BD10B50400E4B260111A4951F8200004
:10231000406914F01F01C840C00703D47B21164850
:10232000FFF7ADFCE4B26011124951F82000012121
:1023300014F01F029140C16010BD10B50400E4B25A
:1023400060110C4951F82000406914F01F01C84089
:10235000C00703D58C210848FFF791FCE4B2601157
:10236000044951F82000006914F01F01C84010F022
:10237000010010BD300BFF1F406A00002DE9F04F37
:10238000A1B0824602AE002017461D46029170623F
:102390000DF144080AE017F8011B0298D04702909B
:1023A000002800F08782706A401C7062387808B993
:1023B000706A81E22528EED10020F0603061706102
:1023C000B061F061306201E040F0010017F8011FD8
:1023D0002029F9D023290DD02B2904D02D2906D06E
:1023E00030290AD00CE040F0020080B2EEE740F065
:1023F0000400FAE740F00800F7E740F01000F4E7C7
:102400002A290DD129680A1D2A600968F16200296C
:1024100004D5494240F00400F16280B27F1C13E011
:102420000021F1620BE0F16A6FF00043994205D0A0
:1024300001EB810302EB43013039F1627F1C3A78F2
:10244000A2F130010A29EED339782E2903D04FF0BA
:10245000FF31B1621EE017F8011F2A2906D1296851
:102460000A1D2A607F1C0968B16213E00021B16275
:102470000BE0B16A6FF00043994205D001EB810394
:1024800002EB43013039B1627F1C3A78A2F130018E
:102490000A29EED330860FF64820397800F02EFD59
:1024A00008B117F8010B8DF83A009DF83A0068283A
:1024B00002BF39786829622005D06C2804BF3878BB
:1024C0006C2803D171208DF83A007F1C11A8B060F0
:1024D0003978B1F125001FD0203802286CD9133883
:1024E00000F095800B3800F02B81401E00F0D48066
:1024F000401E022860D9001F00F0CE80401F30D05F
:10250000401E00F08480401E20D0C01E09D0801ED6
:102510007DD0C01E7BD01BE1F068411CF1602521FD
:1025200020E12868011D29600068B26A7060002AF5
:1025300002D500F0EFFC07E0002100F007FD0028C5
:102540001ABF7168401AB06A30610DE12868011D38
:10255000296000210068CDE9000111A87060782190
:10256000EAE09DF83A00622818D0682806D06A2868
:102570000BD06C2819D0712807D016E02868011DEF
:1025800029600068716A0180EEE02A68101D2860E9
:102590001268706AC117C2E90001E5E02868011DF0
:1025A00029600068716A0170DEE02868011D2960F9
:1025B0000068716A0160D7E02868C01D20F007003C
:1025C000286000F108022A60D0E90023CDE9002349
:1025D000002B04D5F068421CF2602D220DE0308EF5
:1025E000820704D5F068421CF2602B2205E0C00788
:1025F00005D5F068421CF260202200F80820F0683F
:1026000011AA8018706000A800F008FAACE09DF8EC
:102610003A006C2808BF2A6811D0712808BF2A68C0
:1026200002D02A686A280AD1D21D22F007022A6045
:10263000144604F108022A60D4E9002303E0131DC4
:102640002B6000231268CDE90023682808BF92B2EE
:1026500007D0622808BFD2B203D0742818BF7A28E6
:1026600002D10023CDE9002396F8300000075FD5A2
:10267000DDE90023002B08BF002A59D041F02000DB
:10268000782855D1F068302200F80820401C421C00
:10269000F26000F808104BE09DF83A0062280CD078
:1026A000682810D06A281AD06C2823D0712816D038
:1026B00074281FD07A280CD01CE02868021D2A60DC
:1026C00090F900201AE02868021D2A60B0F9002065
:1026D00014E02868021D2A60002302680FE02868C1
:1026E000C01D20F00700286000F108022A60D0E930
:1026F000002304E02868021D2A600268D317CDE990
:102700000023002B04DAF068421CF2602D220DE059
:10271000308E820704D5F068421CF2602B2205E05F
:10272000C00705D5F068421CF260202200F808209E
:10273000F06811AA8018706000A800F0C0F813E0DB
:10274000F068411CF16029680A1D2A60096809E0E7
:10275000F068421CF260252200F8082021B1F068E0
:10276000421CF26000F80810F06AF168401AB16982
:10277000401A3169401AF169401A7169401A316A88
:10278000A0EB010996F830007F1C400710D42020F0
:102790008DF84000002409E0012310AA00A950464A
:1027A00000F086FB002840F08580641C4C45F3DB7C
:1027B000F4680DF1440B0AE01BF8011B0298D047A6
:1027C0000290002876D0706A401C7062641E002C53
:1027D000F2D130208DF840004FF0000BB46909E0D1
:1027E000012310AA00A9504600F062FB002861D125
:1027F0000BF1010BA345F3DB3469D6F804B00AE012
:102800001BF8011B0298D0470290002852D0706A32
:10281000401C7062641E002CF2D130208DF8400004
:102820004FF0000BF46909E0012310AA00A95046FB
:1028300000F03EFB00283DD10BF1010BA345F3DB7B
:1028400030697168746900EB010B09E01BF8011B2A
:102850000298D047029068B3706A401C7062641E90
:10286000002CF3D130208DF840004FF0000B346A7B
:1028700008E0012310AA00A9504600F019FBC8B9CE
:102880000BF1010BA345F4DB96F8300040077FF510
:102890008DAD20208DF84000002400E0641C4C45E4
:1028A000BFF684AD012310AA00A9504600F000FB3A
:1028B0000028F3D04FF0FF3021B0BDE8F08F2DE9B4
:1028C000FA47064682B035690A466F2A08BF0827CC
:1028D00005D041F02000782814BF0A271027D6E938
:1028E00000013C2480468946642A18BF692A05D124
:1028F000002903DAD8F1000869EB4909B9F1000FA2
:1029000008BFB8F1000F0CD1306B50B9082F3BD184
:1029100096F83800000737D530203B2485F83B0077
:1029200032E0CDE90089FB17404649463A4600F0BF
:1029300039FBB846A8FB0023DDE90089A8EB0202B9
:102940003032A4F1010AD2B254463A2A03DB9DF890
:102950000830513B9A180AF8052080465FEA0109C1
:1029600008BFB8F1000F03D0F06861198842D8D3CE
:10297000082F09D196F83800000705D5605D30288A
:1029800002D0641E30206055C4F13C00B061611972
:10299000F160316B884207DA081A30624FF6EF7146
:1029A000308F0840308710E000290ED596F8381097
:1029B00001F01401102908D1716B7269891A326A09
:1029C000891A081A0128A8BF306204B0BDE8F08750
:1029D0002DE9D04306460F4614464FF00008DFF8B5
:1029E000389012E0E00707D542464B46304639465C
:1029F000FEF7E6FE06460F4664104046494642464C
:102A00004B46FEF7DDFE80468946002CEAD1304673
:102A10003946BDE8D0830000000024402DE9F34F83
:102A20008BB0D0E90089006B01AF002802D50B986C
:102A3000062106E004BF41F02000672802D10B9870
:102A4000012101630B984168C1F30A5040F2FF7203
:102A5000904220D1080302BF0B98006800280AD1D9
:102A60000B98032181619DF8300061381A2844D306
:102A70000FF2804109E00B98032181619DF830003D
:102A800061381A2836D30FF264410B98C0680322CC
:102A900000F000FBEFE0012807DA0B9800F035FBAF
:102AA000012802DB00230026DCE00B9A526840F28A
:102AB000FE3161F31E520B994A6040F2FE31461A14
:102AC0004046494600220023FEF72EFD38BF89F01C
:102AD000004936B247F297507043414990FBF1F6F6
:102AE00036B2C6F10702012A0ADB40464946FFF723
:102AF0006FFF27E00FF2F031C7E70FF2F431C4E7C0
:102B000057420024374DDFF8E0B09A4612E0F8074C
:102B100007D552465B4620462946FEF751FE04463D
:102B20000D467F105046594652465B46FEF748FE1A
:102B300082468B46002FEAD14046494622462B4624
:102B4000FEF71AFD80469DF8300040F020058946CA
:102B5000662D0CBF06F10A0006200B99096B471879
:102B6000142FA8BF132730208DF804000DF10504A1
:102B7000DFF878B0012F3BDB40464946FEF708FFFF
:102B8000014604F1080204234FF00A0CB1FBFCFCDF
:102B90000CEB8C04A1EB4401303102F8011D0A2139
:102BA000BCFBF1FE0EEB8E04ACEB440430347146FA
:102BB00002F8014D5B1EE7D1083F02F10804012F26
:102BC000D8DBFEF7A3FC02460B4640464946FEF71B
:102BD00081FF00225B46FEF7F3FD80468946CBE786
:102BE000A08601000000F03F0000244084D79741F8
:102BF0000DF10500201A0DF1050702E0401E761EBA
:102C00007F1C39783029F9D0662D02D136B2711C7B
:102C100003E0652D0CBF012100210B9A126B8B186C
:102C20001BB29842B8BF03461BB219001AD48142A6
:102C300004DAC85D3528A8BF392000DA3020CA1967
:102C4000521E00E05B1E12F80159491E8542F9D060
:102C5000392802D1C85D401CC855002902D57F1E05
:102C60005B1C761C36B29DF830100B9800961BB298
:102C70003A4600F003F80DB0BDE8F08F2DE9F047BB
:102C800086B006468A4690461D4600F07CFA406AA9
:102C9000376B90F80090012D02DA01250FF25828C9
:102CA0004AF02000BDF93840662808BF641C13D0E4
:102CB000672840F0878014F1040F72DBBC4270DAA1
:102CC00096F83800641C000702D4BD42B8BF2F46F6
:102CD00024B23F1B48BF0027F068B16924B2012C21
:102CE00021DA30234A1C0B54012F03DA96F83810EE
:102CF000090702D502F80090521CB261E742B8BF42
:102D00007C4224B26142E7197162AF42B8BF3D46CE
:102D10002DB2F5612A46B3694146181800F0BAF998
:102D2000781BB062ADE00818A54216DA2A46414683
:102D300000F0B0F9B1696918B161601B7062012FD0
:102D400003DA96F83800000705D5F06801F800901E
:102D5000F069401CF061B76293E02246414600F002
:102D600099F9B06920182D1B012F03DA96F8381055
:102D7000090703D5F16800F80190401C2DB2B0613D
:102D8000AF42B8BF3D46F3682DB22A4604EB0801B6
:102D9000C01800F07FF9B0692818B061781B706224
:102DA0006FE0BD4204DA96F83810090758BF2F4685
:102DB0007F1E48BF0027BAF1670F0CBF4FF0650AAE
:102DC0004FF0450AB169F06818F8013B0B544A1CF2
:102DD000012F05DA96F83810090758BFB26115D5EA
:102DE00002F80090531CB361012F0FDB6D1E2DB252
:102DF000AF42B8BF3D462DB22A464146181800F0F2
:102E000049F9B0692818B061781B7062B069F1683F
:102E100000EB0108200008F801AB03D42B2008F8D0
:102E2000010B03E02D2108F8011B4442002502AFED
:102E300008E00A2200A800F0BFF9019807F8010B8A
:102E40006D1C009C21B20129F3DA022D06DA4AF04A
:102E50002000652804BF302008F8010B4DB9302050
:102E600008F8010B07E06D1E02A8285C303008F856
:102E7000010B012DF7DAB069F1684018A8EB0000EA
:102E8000F06196F8380000F0140010280DD1706938
:102E9000B1690818716A0818F1690818B16A081848
:102EA000716B8842BCBF081A306206B0BDE8F0877B
:102EB000F8B504460D4616461F46002004E0E86AB1
:102EC000401CE8627F1E002047B116F8011BA8686D
:102ED000A047A8600028F2D14FF0FF30F2BD0000FB
:102EE000686A6C747A4C00006E616E004E414E0050
:102EF000696E6600494E4600300000000278C9B293
:102F00008A421AB11CBF10F8012FF9E718BF002040
:102F10007047000000F10103810704D010F8011B85
:102F200089B18107FAD10268B2F10131914311F000
:102F3000803F04BF50F8042FF6E710F8011B11B1D1
:102F400010F8011BFBE7C01A70470000C9B28307E5
:102F500006D0521E22D310F8013B9942F7D11FE050
:102F6000083A13D302F1040241EA012141EA014186
:102F700050F8043B121F21BF4B40A3F1013C2CEA47
:102F8000030C1CF0803FF3D0C9B2001F083210F8C8
:102F9000013B521E28BF91EA030FF8D818BF012049
:102FA000401E70471B4213D1094236D12AB18446D4
:102FB000B0FBF2F002FB10C2704700F005B9FCD381
:102FC0000022002370470B00020000210020704700
:102FD000904271EB030CF6D370B5B1FA81F4B3FAF9
:102FE00083F52C1BA340C4F1200532FA05F63343C8
:102FF000A2405FF00046E64002E05B085FEA320272
:10300000841A71EB030524BF204629467641F4D388
:1030100002000B003000002170BD012ACFD970B52D
:10302000140C20D0B1FA81F4B2FA82F5C4F1200474
:103030006419B4F12006D6D3B2405FF00044F440E6
:10304000002502E052085FEA3303C61A71EB020E54
:1030500024BF3046714664416D41F3D302000B003A
:103060002000290070BD0C46B1FBF2F102FB1145B6
:103070002D0445EA1045B5FBF2F402FB145580B26D
:1030800040EA0545B5FBF2F002FB105240EA04406D
:1030900070BD000062B38B0708D0521E11F8013BCF
:1030A00000F8013B00F024808B07F6D1830740F045
:1030B000208000BF103A07D330B4B1E83810103A7E
:1030C000A0E83810F9D230BC530724BFB1E808108B
:1030D000A0E8081044BF51F8043B40F8043BD20775
:1030E00024BF31F8022B20F8022B44BF0B78037069
:1030F0007047083A07D3B1E80810083A40F8043B93
:1031000040F804CBF7D25307E4E730B4436803F048
:10311000004201211B031B0B436004BF0368002B0B
:1031200008D10DE00368DD0F45EA440444605B000C
:103130000360491E4468E302F4D523031B0B43607C
:1031400043681A434260084630BC704780B5134854
:1031500000F03BF80FF24801016041608160C160FE
:103160000161416181610FF23C0242628162C16290
:10317000016341630FF2300282630FF23402C263D3
:103180000164416401BD10B5044800F01EF8044616
:10319000206808B9FFF7DAFF204610BD201AFF1F8C
:1031A000000000002E00000066616C7365000000E6
:1031B000747275650000000091FBF2F303FB1211BD
:1031C000C0E90031704700007047704700B003400D
:1031D00000B00B40000000000000000000000000F4
:1031E00000000000000000000000000000000000DF
:1031F00000004E6F6E4D61736B61626C6500000084
:1032000000486172644661756C7400000000000043
:103210004D656D4D616E6167656D656E7400004250
:1032200075734661756C74000000000000005573F2
:103230006167654661756C74000000000000000065
:10324000000000000000000000000000000000007E
:10325000000000000000000000000000000000006E
:10326000000000000000000000000000000000005E
:10327000000000000000000000535643616C6C0029
:10328000000000000000000044656275674D6F6E2D
:1032900069746F7200000000000000000000000070
:1032A00000000000000050656E64535600000000EE
:1032B00000000000005379735469636B0000000044
:1032C00000000000444D41300000000000000000FC
:1032D000000000444D4131000000000000000000EB
:1032E0000000444D413200000000000000000000DA
:1032F00000444D41330000000000000000000000C9
:10330000444D413400000000000000000000004473
:103310004D41350000000000000000000000444D59
:1033200041360000000000000000000000444D4154
:10333000370000000000000000000000444D41384C
:103340000000000000000000000000444D41390072
:1033500000000000000000000000444D413130003A
:10336000000000000000000000444D413131000029
:103370000000000000000000444D41313200000018
:1033800000000000000000444D4131330000000007
:10339000000000000000444D4131340000000000F6
:1033A0000000000000444D413135000000000000E5
:1033B00000000000444D415F4572726F72000000D2
:1033C0000000004D434D0000000000000000000020
:1033D00000004654464C00000000000000000000C1
:1033E00000526561645F436F6C6C6973696F6E0056
:1033F0004C56445F4C565700000000000000004C43
:103400004C57000000000000000000000000576161
:10341000746368646F6700000000000000524E474C
:1034200000000000000000000000000049324330AE
:10343000000000000000000000000049324331009D
:103440000000000000000000000053504930000060
:10345000000000000000000000535049310000004F
:10346000000000000000000053504932000000003E
:103470000000000000000043414E305F4F525F4D9E
:10348000425F6275660043414E305F4275735F4F25
:10349000666600000043414E305F4572726F7200F5
:1034A0000000000043414E305F54785F5761726EF8
:1034B000696E6743414E305F52785F5761726E6943
:1034C0006E6743414E305F57616B655F557000001A
:1034D0000052657365727665643531000000000046
:1034E00052657365727665643532000000000043F2
:1034F000414E315F4F525F4D425F627566004341FE
:103500004E315F4275735F4F666600000043414E67
:10351000315F4572726F72000000000043414E310E
:103520005F54785F5761726E696E6743414E315FD9
:1035300052785F5761726E696E6743414E315F57D3
:10354000616B655F5570000000526573657276654A
:103550006435390000000000526573657276656459
:103560003630000000000055415254305F52585F21
:1035700054580000000055415254305F45525200EB
:10358000000000000055415254315F52585F5458BA
:103590000000000055415254315F45525200000076
:1035A00000000055415254325F52585F5458000099
:1035B000000055415254325F455252000000000055
:1035C0000055415254335F52585F54580000000078
:1035D00055415254335F45525200000000000055DF
:1035E000415254345F52585F545800000000554116
:1035F0005254345F455252000000000000554152C1
:1036000054355F52585F54580000000055415254E1
:10361000355F455252000000000000414443300035
:1036200000000000000000000000414443310000A1
:10363000000000000000000000434D50300000007A
:103640000000000000000000434D50310000000069
:1036500000000000000000434D5032000000000058
:1036600000000000000046544D3000000000000043
:10367000000000000046544D310000000000000032
:103680000000000046544D32000000000000000021
:10369000000000434D540000000000000000000046
:1036A0000000525443000000000000000000000031
:1036B000005265736572766564383300000000005F
:1036C000504954300000000000000000000000508D
:1036D0004954310000000000000000000000504983
:1036E0005432000000000000000000000050495467
:1036F0003300000000000000000000005044423091
:10370000000000000000000000000055534230009F
:1037100000000000000000000000555342444344F4
:10372000000000000000000000454E45545F3135A8
:1037300038385F54696D6572454E45545F54726107
:103740006E736D69740000454E45545F5265636544
:10375000697665000000454E45545F4572726F7290
:10376000000000000049325330000000000000005B
:103770000000000053444843000000000000000027
:103780000000004441433000000000000000000041
:103790000000444143310000000000000000000030
:1037A00000545349300000000000000000000000F9
:1037B0004D43470000000000000000000000004CE6
:1037C0005054696D657200000000000000005265F1
:1037D00073657276656431303200000000504F52DC
:1037E000544100000000000000000000504F5254FF
:1037F0004200000000000000000000504F525443FF
:1038000000000000000000000000504F525444002F
:10381000000000000000000000504F52544500001E
:103820000000000000000000526573657276656458
:10383000313038000000005265736572766564317E
:10384000303900000000526573657276656431316D
:103850003000000000526573657276656431313165
:103860000000000052657365727665643131320084
:103870000000005265736572766564313133000073
:103880000000526573657276656431313400000062
:103890000052657365727665643131350000000051
:1038A00052657365727665643131360000000052EE
:1038B00065736572766564313137000000005265CA
:1038C00073657276656431313800000000526573AB
:1038D0006572766564313139000000000080034074
:1038E0000090034000800B4000900B4000F00F4020
:1038F00040F00F4080F00F40C0F00F4000F10F404B
:1039000066000A1D32000701640007106E000406FD
:10391000780004088200040A8C00040C9600040E4F
:10392000A0000410AA000412B4000414BE0004167F
:10393000C8000418D200041ADC00041CE100041DB5
:10394000E600041EEB00041FF4000317FA0003183E
:10395000130101062C010214000109080090044023
:1039600000A0044000B0044000C0044000D0044067
:1039700000C0024000D0024000C00A4000A0064043
:1039800000B0064000C0064000D0064000A00E4037
:1039900000B00E400000000000C0674000000000C2
:1039A00000C067400000000000C067400000000049
:1039B00000C0674034353637344310100100000032
:1039C000344310100100000000010203676D4E4FE8
:1039D00002040101B819FF1F081AFF1FB819FF1FC1
:1039E000B819FF1FB819FF1F510CFF1F380CFF1F1C
:1039F00000000000000000000000000000000000C7
:103A000000000000000000000000000000000000B6
:103A1000000000000821DFF8102701231360DFF801
:103A20000C27002313600A00511ED2B2002A15D0C1
:103A3000020604D5DFF8F8260123136003E0DFF85F
:103A4000F02600231360DFF8E4260123136000BF93
:103A5000DFF8D826002313604000E4E77047000039
:103A60000821DFF8C42600231360DFF8C0260023F6
:103A700013600A00511ED2B2002A15D0020604D5E6
:103A8000DFF8AC260123136003E0DFF8A42600234F
:103A90001360DFF898260123136000BFDFF88C263F
:103AA000002313604000E4E7704738B504000D00C0
:103AB000B5F15000C0B2FFF7D3FFE4B2200950F0D7
:103AC0001000C0B2FFF7CCFF14F00F0050F001005F
:103AD000C0B2FFF7C5FF31BD70B50400002005007E
:103AE000EDB2082D17DAB5F15000C0B2FFF7B8FFFC
:103AF0000120FFF7B5FF1020FFF7B2FF00200600FE
:103B0000F6B2802E05DA2000C0B2FFF783FF761CE4
:103B1000F6E76D1CE4E770BD38B500200400E4B2A0
:103B2000082C16DAB4F15000C0B2FFF799FF01205B
:103B3000FFF796FF1020FFF793FF00200500EDB27E
:103B4000802D04DA0020FFF765FF6D1CF7E7641C89
:103B5000E5E731BD80B2002809D04FF47A52110058
:103B60000A00511E92B2002AFAD1401EF2E77047B5
:103B700080B5012201216120FEF76CFB01220121A9
:103B80006220FEF767FB012201216320FEF762FB42
:103B9000012201216520FEF75DFB002201214F205B
:103BA000FEF758FBDFF8840501210160DFF884058A
:103BB00000210160DFF88005002101603220FFF75D
:103BC000C9FFDFF8740501210160AE20FFF748FF4F
:103BD0000020FFF745FF1020FFF742FF4020FFF7CE
:103BE0003FFF8120FFF73CFFCF20FFF739FFA120E7
:103BF000FFF736FFC820FFF733FFA620FFF730FF9F
:103C0000A820FFF72DFF3F20FFF72AFFD320FFF763
:103C100027FF0020FFF724FFD520FFF721FF80209A
:103C2000FFF71EFFD920FFF71BFFF120FFF718FF5A
:103C3000DA20FFF715FF1220FFF712FFDB20FFF756
:103C40000FFF4020FFF70CFF2020FFF709FF0220A5
:103C5000FFF706FF8D20FFF703FF1420FFF700FF9B
:103C6000A420FFF7FDFEA620FFF7FAFEAF20FFF726
:103C7000F7FE0020FFF730FF00210020FFF715FFBF
:103C800001BD2DE9F84304000D00160000275FF088
:103C900000085FF000095FFA89F919F806000028AA
:103CA0002BD05FFA89F919F8060020380700E4B232
:103CB0007F2C02DB002004006D1C2900C9B220000B
:103CC000C0B2FFF7F2FE002080465FFA88F8B8F134
:103CD000060F0EDA5FFA88F8FFB20620DFF85C14F0
:103CE00000FB071018F80000FFF794FE18F1010818
:103CF000EBE7A41D19F10109CDE7BDE8F1832DE93A
:103D0000F84304000D00160000275FF000085FF084
:103D100000095FFA89F919F80600002842D05FFA15
:103D200089F919F8060020380700E4B2792C02DB83
:103D3000002004006D1C2900C9B22000C0B2FFF7AA
:103D4000B4FE002080465FFA88F8B8F1080F0BDA5D
:103D5000FFB2380150FA88F0DFF8E413405CFFF757
:103D600059FE18F10108EEE7691CC9B22000C0B283
:103D7000FFF79BFE002080465FFA88F8B8F1080F35
:103D80000CDAFFB2380150FA88F0DFF8B4134018AB
:103D9000007AFFF73FFE18F10108EDE7083419F14A
:103DA0000109B6E7BDE8F1832DE9F84304000D00F1
:103DB000160000275FF000085FF001095FFA88F83D
:103DC00018F80600002800F08D8000200700012070
:103DD0008146FFB2DFF86C03385C80281DDBFFB240
:103DE000DFF86003385C5FFA88F818F8061088423C
:103DF00011D1FFB2DFF84C03381840785FFA88F829
:103E000018EB06014978884205D1FFB20E2017FB56
:103E100000F0814601E0BF1CDBE7E4B2772C02DB57
:103E2000002004006D1C2900C9B22000C0B2FFF7B9
:103E30003CFE1FFA89F9B9F1010F2DD02900C9B252
:103E40002000C0B2FFF731FE00200700FFB20E2FA6
:103E50000BDA1FFA89F9DFF8F00219F80000FFF712
:103E6000D9FD19F101097F1CF0E7691CC9B22000D6
:103E7000C0B2FFF71AFE00200700FFB20E2F2DDAA6
:103E80001FFA89F9DFF8C00219F80000FFF7C2FD38
:103E900019F101097F1CF0E718F101082900C9B2E6
:103EA0002000C0B2FFF701FE00200700FFB2102F74
:103EB00004DA0020FFF7AEFD7F1CF7E7691CC9B2EA
:103EC0002000C0B2FFF7F1FD00200700FFB2102F65
:103ED00004DA0020FFF79EFD7F1CF7E70E3418F18F
:103EE00002086BE7BDE8F183F8B504000D00160089
:103EF0000027FFB2B85D00282AD0FFB2B85D802845
:103F000015DBFFB2B85D8DF80000FFB2B81940783C
:103F10008DF8010000208DF8020000AA2900C9B226
:103F20002000C0B2FFF740FF0E34BF1CE1E7FFB234
:103F3000B85D8DF8000000208DF8010000AA29006E
:103F4000C9B22000C0B2FFF7DAFE08347F1CD0E708
:103F5000F1BDF0B583B006000C00150000A80021EB
:103F6000002206C0083836B2002E05D52D208DF867
:103F7000000036B2764202E02B208DF8000036B207
:103F800042F2107096FBF0F08DF8010036B242F26A
:103F9000107096FBF0F100FB11604FF47A7190FB0A
:103FA000F1F08DF8020036B24FF47A7096FBF0F122
:103FB00000FB1160642190FBF1F08DF8030036B234
:103FC000642096FBF0F100FB11600A2190FBF1F0F8
:103FD0008DF8040036B20A2096FBF0F100FB116068
:103FE0008DF805000027FFB2062F80F28480FFB213
:103FF00000A83856002816D001281CD0022822D04C
:10400000032828D004282ED0052834D006283AD0FA
:10401000072840D0082846D009284CD02B285AD051
:104020002D2850D05FE034A22900C9B22000C0B2D0
:10403000FFF75AFF57E031A22900C9B22000C0B2F1
:10404000FFF752FF4FE02EA22900C9B22000C0B2F4
:10405000FFF74AFF47E02BA22900C9B22000C0B2F7
:10406000FFF742FF3FE028A22900C9B22000C0B2FA
:10407000FFF73AFF37E025A22900C9B22000C0B2FD
:10408000FFF732FF2FE022A22900C9B22000C0B200
:10409000FFF72AFF27E01FA22900C9B22000C0B203
:1040A000FFF722FF1FE01CA22900C9B22000C0B206
:1040B000FFF71AFF17E019A22900C9B22000C0B209
:1040C000FFF712FF0FE016A22900C9B22000C0B20C
:1040D000FFF70AFF07E013A22900C9B22000C0B20F
:1040E000FFF702FFFFE70A34E4B2502C01D114209D
:1040F00004007F1C77E7F7BD3000000031000000AE
:1041000032000000330000003400000035000000E1
:1041100036000000370000003800000039000000C1
:104120002D0000002B0000000C18FE430418FE4375
:104130000818FE431418FE433C10FE43585E00006E
:10414000CC470000806B0000706200002DE9FD4F3D
:1041500096B00C00DFF8480600684FF47A714843C7
:104160001899B0FBF1F705A8DFF838164022FEF7E2
:10417000A1FF04A8DFF830160A6802600020019051
:104180005FF0FF399DF95800002841D1DFF81C0687
:10419000006850F48050DFF8141608604FF4007186
:1041A0000F20FDF7FFFD4FF400711020FDF7FAFD21
:1041B0004FF400711120FDF7F5FDE00704D54FF431
:1041C00000710E20FDF7EEFDA00704D54FF400713D
:1041D0004320FDF7E7FD600704D54FF4007142204E
:1041E000FDF7E0FD200704D54FF400714120FDF7F5
:1041F000D9FDE00604D54FF400714020FDF7D2FD53
:10420000A0066CD54FF440713720FDF7CBFD66E07A
:104210009DF95800012833D1DFF89005006850F46B
:104220000050DFF8881508604FF400712B20FDF76F
:10423000B9FD4FF400713020FDF7B4FD4FF400716B
:104240003120FDF7AFFDE00704D54FF400712A20BF
:10425000FDF7A8FDA00704D54FF400718020FDF7FD
:10426000A1FD600704D54FF400718520FDF79AFD8C
:10427000200734D54FF400718620FDF793FD2EE022
:104280009DF95800022825D1DFF82405006850F474
:104290008050DFF81C1508604FF400716C20FDF7AA
:1042A00081FD4FF400716D20FDF77CFD4FF400712E
:1042B0006E20FDF777FDE00704D54FF400716B2009
:1042C000FDF770FDA0070AD54FF400716F20FDF7D0
:1042D00069FD04E07B21DFF8DC04FDF7D0FC9DF9EB
:1042E0005800DFF8D41451F8200040F60141016075
:1042F0009DF95800DFF8C01451F82000DFF8BC1415
:10430000C1629DF95C00002840F0A1809DF9580031
:10431000DFF8A41451F82000DFF8A4140160002095
:104320000500EDB2102D20DA00200600F6B2042EB2
:1043300019DAEDB205A850F82500F6B204A9715CAF
:1043400048438246BAEB070000F03CFA8046C84575
:1043500007D2C146EDB20195F6B20296B9F1000F4F
:1043600003D0761CE2E76D1CDBE7DFF8340400685D
:104370004FF47A714843019905AA52F82110029A24
:1043800004ABD25C5143B0FBF1F00390DFF81004B2
:1043900000684FF47A7148430399B0FBF1F040088C
:1043A00007005FF0FF3081460F208DF801000320E9
:1043B0008DF80200002083465FFA8BFBBBF1100FE3
:1043C00028DA01201BF1010188408246B7FBFAF090
:1043D000401E40088DF800009DF80000042816DA01
:1043E0009DF800004000401C00FB0AFABAEB0700F1
:1043F00000F0E8F98046C84509D2C1468DF801B001
:104400009DF800008DF80200B9F1000F02D01BF1F9
:10441000010BD1E70298000410F44030019911F02B
:104420000F0108439DF80110090311F4704108437E
:104430009DF80210890511F44001084350F06050C6
:104440009DF95810DC4A52F82110C86007E09DF928
:104450005800D94951F820005FF07851C1609DF9AA
:104460005800D54951F820000068400840009DF9E7
:104470005810D14A52F821100860039819B0BDE8CD
:10448000F08FF0B4049C002540B2CB4E56F820606B
:10449000CA4FF76240B2C84E56F82060366856F4EC
:1044A000406640B2C44F57F820703E6040B2C24EE2
:1044B00056F82060F66AB603E6D400263500661E7C
:1044C000B5422FD249B20E0416F47C16AF5C3E43BF
:1044D00056F0004640B2B84F57F820707E6340B2A5
:1044E000B54E56F82060F66AB603F8D5002B06D014
:1044F00040B2B14E56F82060B66BEE5404E040B2C4
:10450000AD4E56F82060B66B40B2AB4E56F8206008
:10451000F66A56F4003640B2A74F57F82070FE6294
:104520006D1CCCE749B20E0416F47C16AF5C3E431A
:1045300056F0006640B2A04F57F820707E6340B23C
:104540009D4E56F82060F66AF600F8D540B29A4EB5
:1045500056F82060F66AB603F8D5002B06D040B2B4
:10456000954E56F82060B66BEE5404E040B2924E81
:1045700056F82060B66B40B28F4E56F82060F66A4F
:1045800056F4003640B28C4F57F82070FE62F0BCF3
:1045900070472DE9F041069C079D089E099F5FF03A
:1045A000000C40B2DFF810E25EF820E0DFF80C8289
:1045B000CEF82C8040B2DFF800E25EF820E0DEF8B2
:1045C00000E05EF4406E40B2DFF8EC8158F82080E5
:1045D000C8F800E040B2DFF8E0E15EF820E0DEF885
:1045E0002CE05FEA8E3EDCD45FF0000EF446B4456A
:1045F00041D249B25FEA014E1EF47C1E1CF80280D3
:1046000058EA0E0E5EF0004E40B2DFF8AC8158F86A
:104610002080C8F834E040B2DFF89CE15EF820E08A
:10462000DEF82CE05FEA8E3EF5D5002B09D040B2D3
:10463000DFF884E15EF820E0DEF838E00CF803E013
:1046400006E040B2DFF870E15EF820E0DEF838E026
:1046500040B2DFF864E15EF820E0DEF82CE05EF4C2
:10466000003E40B2DFF8508158F82080C8F82CE0B6
:104670001CF1010CBBE75FF0000EF446B7F1010E30
:10468000F44541D249B25FEA014E1EF47C1E1CF88B
:10469000048058EA0E0E5EF0004E40B2DFF818813A
:1046A00058F82080C8F834E040B2DFF80CE15EF83A
:1046B00020E0DEF82CE05FEA8E3EF5D5002D09D033
:1046C00040B2DFF8F4E05EF820E0DEF838E00CF805
:1046D00005E006E040B2DFF8E0E05EF820E0DEF85A
:1046E00038E040B2DFF8D0E05EF820E0DEF82CE001
:1046F0005EF4003E40B2DFF8C08058F82080C8F871
:104700002CE01CF1010CB9E749B25FEA014E1EF43E
:104710007C1E1CF8048058EA0E0E5EF0006E40B25B
:10472000DFF8948058F82080C8F834E040B2DFF811
:1047300088E05EF820E0DEF82CE05FEACE0EF5D5EA
:1047400040B2DFF874E05EF820E0DEF82CE05FEACB
:104750008E3EF5D5002D09D040B2DFF85CE05EF862
:1047600020E0DEF838E00CF805E006E040B2DFF8C3
:1047700048E05EF820E0DEF838E040B2DFF838E0EC
:104780005EF820E0DEF82CE05EF4003E40B2DFF898
:10479000288058F82080C8F82CE0BDE8F08100009F
:1047A000B419FF1F24690000386C00003C800440ED
:1047B00030800440906A0000B40BFF1F00000A1A0A
:1047C00000003F80002848BF4042704700000000C2
:1047D000000000000000000000000000000000F8E1
:1047E00000000000000000333000000000100C0644
:1047F000100C0600000000000000000040C07840DF
:10480000C0784000043F04043F040400007088FCAA
:1048100008300000001820FF211E0000F008F00002
:10482000E018000000211C031E211E0000F0088873
:10483000700000001E2123241927211010160E00DD
:10484000000000000000000000000000000000E088
:10485000180402000000000718204000000204189D
:10486000E00000000040201807000000404080F0F9
:10487000804040000202010F01020200000000F02F
:10488000000000000101011F010101000000000003
:104890000000000080B07000000000000000000078
:1048A0000000000000010101010101010000000001
:1048B0000000000000303000000000000000000098
:1048C00080601804006018060100000000E0100875
:1048D0000810E000000F102020100F00001010F84A
:1048E000000000000020203F202000000070080889
:1048F0000888700000302824222130000030088809
:10490000884830000018202020110E000000C02030
:1049100010F8000000070424243F240000F8088851
:10492000880808000019212020110E0000E01088DE
:1049300088180000000F112020110E000038080810
:10494000C83808000000003F000000000070880820
:1049500008887000001C222121221C0000E01008A1
:104960000810E0000000312222110F00000000C0FA
:10497000C000000000000030300000000000008097
:104980000000000000008060000000000000804087
:1049900020100800000102040810200040404040A0
:1049A00040404000040404040404040000081020F3
:1049B0004080000000201008040201000070480838
:1049C0000808F0000000003036010000C030C828A0
:1049D000E810E0000718272423140B000000C0385B
:1049E000E0000000203C23020227382008F88888D5
:1049F00088700000203F202020110E00C0300808E1
:104A000008083800071820202010080008F80808B7
:104A10000810E000203F202020100F0008F88888B0
:104A2000E8081000203F20202320180008F888887C
:104A3000E8081000203F200003000000C0300808F4
:104A40000838000007182020221E020008F808007D
:104A50000008F808203F210101213F20000808F844
:104A6000080800000020203F202000000000080867
:104A7000F8080800C08080807F00000008F888C027
:104A800028180800203F20012638200008F80800D8
:104A900000000000203F20202020300008F8F8000F
:104AA000F8F80800203F003F003F200008F830C021
:104AB0000008F808203F200007183F00E010080811
:104AC0000810E0000F10202020100F0008F8080840
:104AD0000808F000203F210101010000E010080853
:104AE0000810E0000F18242438504F0008F8888878
:104AF00088887000203F2000030C30200070880858
:104B0000080838000038202121221C00180808F865
:104B1000080818000000203F2000000008F80800E6
:104B20000008F808001F202020201F0008788800B7
:104B300000C83808000007380E010000F80800F827
:104B40000008F800033C0700073C030008186880D1
:104B50008068180820302C03032C30200838C80047
:104B6000C83808000000203F200000001008080896
:104B7000C83808002038262120201800000000FE38
:104B8000020202000000007F40404000000C30C0E4
:104B900000000000000000010638C0000002020210
:104BA000FE000000004040407F00000000000402C2
:104BB00002020400000000000000000000000000ED
:104BC00000000000808080808080808000020204DD
:104BD00000000000000000000000000000008080D5
:104BE000808000000019242222223F2008F8008043
:104BF00080000000003F112020110E000000008006
:104C000080800000000E1120202011000000008094
:104C10008088F800000E112020103F2000008080C6
:104C200080800000001F222222221300008080F0DA
:104C3000888888180020203F202000000000808005
:104C400080808000006B94949493600008F800804A
:104C500080800000203F210000203F2000809898A5
:104C6000000000000020203F202000000000008005
:104C70009898000000C08080807F000008F8000045
:104C800080808000203F24022D302000000808F89A
:104C9000000000000020203F202000008080808055
:104CA00080808000203F20003F20003F80800080E7
:104CB00080800000203F210000203F2000008080F5
:104CC00080800000001F202020201F0080800080A6
:104CD0008000000080FFA12020110E000000008055
:104CE00080808000000E112020A0FF808080800046
:104CF0008080800020203F21200001000000808073
:104D0000808080000033242424241900008080E067
:104D1000808000000000001F202000008080000034
:104D200000808000001F202020103F208080800015
:104D30000080808000010E30080601008080008025
:104D4000008080800F300C030C300F00008080004A
:104D5000808080000020312E0E3120008080800075
:104D60000080808080818E70180601000080808025
:104D7000808080000021302C2221300000000000C3
:104D8000807C020200000000003F40400000000064
:104D9000FF00000000000000FF0000000002027C95
:104DA000800000000040403F0000000000060101BC
:104DB00002020404000000000000000038B50400F6
:104DC0000D0064B2002C06D0022C69D04CD3032C09
:104DD00000F08280C7E0DFF84004006850F0807087
:104DE000DFF8341408606DB2002D0BD0022D15D001
:104DF0000ED3042D1ED017D3062D27D020D3072D78
:104E00002AD02FE04FF480614120FCF7CBFF2AE04D
:104E10004FF480614220FCF7C5FF24E04FF480612D
:104E20004320FCF7BFFF1EE04FF480614420FCF7F5
:104E3000B9FF18E04FF440710720FCF7B3FF12E010
:104E40004FF480616520FCF7ADFF0CE04FF480610A
:104E50006620FCF7A7FF06E04FF480616720FCF7AF
:104E6000A1FF00E07FE07EE0DFF8AC03006850F0D7
:104E70000070DFF8A41308606DB2002D02D0012D80
:104E800006D00BE04FF440710C20FCF78BFF06E0DE
:104E90004FF440710920FCF785FF00E063E062E019
:104EA000DFF87803006850F08070DFF87013086056
:104EB0006DB2002D02D0012D06D00BE04FF44071F1
:104EC0000A20FCF76FFF06E04FF440710B20FCF75F
:104ED00069FF00E047E046E0DFF84003006850F07B
:104EE0000070DFF8381308606DB2002D0BD0022D72
:104EF00015D00ED3042D1ED017D3062D27D020D3C6
:104F0000072D2AD02EE04FF4C0618520FCF74AFF20
:104F100028E04FF4C0618620FCF744FF22E04FF404
:104F2000C0618720FCF73EFF1CE04FF4C061882081
:104F3000FCF738FF16E04FF4C0618920FCF732FF20
:104F400010E04FF4C0618A20FCF72CFF0AE04FF418
:104F5000C0618B20FCF726FF04E04FF4C0618C2079
:104F6000FCF720FFFFE731BD2DE9F84F04000D00ED
:104F700016001F0064B2002C11D064B2012C02D0C4
:104F800064B2022C02D16DB2022D08DB64B2032C94
:104F900005D04FF4C271DFF88802FCF770FE2900DB
:104FA00049B2200040B2FFF709FFDFF8780200683D
:104FB0004FF47A71484380465FEA1840B0FBF6F040
:104FC0008146002082461FFA89F959FA0AF0012821
:104FD00002DB1AF1010AF6E75FFA8AFABAF1080F62
:104FE00005DB40F29F11DFF83802FCF748FE38FA83
:104FF0000AF0B0FBF6F0814664B2002C05D0022C1A
:1050000019D00DD3032C21D02BE01FFA89F919F107
:10501000010000FB07F06421B0FBF1F0834620E0C3
:105020001FFA89F919F1010000FB07F06421B0FBB8
:10503000F1F0834615E01FFA89F919F1010000FB30
:1050400007F06421B0FBF1F083460AE01FFA89F90A
:1050500019F1010000FB07F06421B0FBF1F0834679
:10506000FFE76DB264B2DFF8C00150F8240010EB26
:10507000C5006DB264B2DFF8B01151F8241011EB25
:10508000C501C96831F00401C1606DB264B2DFF8D6
:10509000980150F8240010EBC5002821C16064B2CB
:1050A000DFF8840150F824005FFA8AFA1AF0070149
:1050B00051F00801016064B2DFF86C0150F824007F
:1050C0001FFA89F9C0F8089064B2DFF85C0150F863
:1050D00024000021C1646DB264B2DFF84C0150F8C5
:1050E000240010EBC5001FFA8BFBC0F810B064B2AF
:1050F000DFF8340150F8240000214160BDE8F18F51
:105100002DE9F04104000D0016005FF0000864B2C4
:10511000002C11D064B2012C02D064B2022C02D156
:105120006DB2022D08DB64B2032C05D040F2E3110E
:10513000DFF8EC00FCF7A3FD64B2002C05D0022CD4
:1051400015D00BD3032C1BD023E0652E05D340F2E2
:10515000E911DFF8CC00FCF792FD1AE0652E05D3CB
:1051600040F2ED11DFF8B800FCF789FD11E0652E83
:1051700005D340F2F111DFF8A800FCF780FD08E04C
:10518000652E05D34FF4FB71DFF89400FCF777FD33
:10519000FFE764B2DFF8900050F824008068804692
:1051A000B8F1000FF5D064B2002C05D0022C15D058
:1051B0000BD3032C1BD023E018F1010000FB06F0F9
:1051C0006421B0FBF1F007001AE018F1010000FBC8
:1051D00006F06421B0FBF1F0070011E018F10100C6
:1051E00000FB06F06421B0FBF1F0070008E018F1C5
:1051F000010000FB06F06421B0FBF1F00700FFE7BF
:105200006DB264B2DFF8200050F8240010EBC50046
:105210000761BDE8F08100003C800440308004401C
:10522000186A0000B419FF1F200BFF1F80B5DFF8BC
:105230002434002201210220FEF788FF00220121F0
:105240006F20FDF707F8002200216A20FDF702F821
:10525000DFF804146A20FCF7C7FDDFF80004002122
:1052600001600321232000F035F82821252000F0DB
:1052700031F80F21262000F02DF80121212000F027
:1052800029F80121222000F025F80522DFF8D013AB
:105290002A2000F046F82021312000F01BF8FF21E1
:1052A000E22000F017F80522DFF8B813302000F0F4
:1052B00038F80F21242000F00DF8FF21E12000F044
:1052C00009F800F092F8DFF894030121016000F082
:1052D00050F802BD30B583B004000D008DF80440D5
:1052E0008DF805500220009001AB01AA0121022097
:1052F000FFF7C7F89DF804003EBD30B583B0040049
:105300000D008DF804400220009001AB01AA01219C
:105310000220FFF7B6F89DF8050028709DF80400FC
:105320003EBD31B584B00C001500039501200290FC
:1053300000200190009404AB04AA01210220FFF791
:1053400028F99DF8100005B030BD31B584B00C00CF
:10535000150003950120029001940020009004ABF9
:1053600004AA01210220FFF714F99DF8100005B0EE
:1053700030BD10B588B005A8DFF8EC120CC90CC020
:105380000839083830208DF81000052003900120DE
:1053900002900020019005A80090002304AA01219A
:1053A0000220FFF7F6F810208DF81000052003907A
:1053B0000120029005A8019000200090002304AA7B
:1053C00001210220FFF7E5F800200400E4B2052CDB
:1053D00008DAE4B205A8205CC22801D0002002E06F
:1053E000641CF3E7012008B010BD80B5DFF86C0243
:1053F0000021016001212120FFF76CFF0121222003
:10540000FFF768FF0522DFF858122A20FFF789FF0F
:105410000F212020FFF75EFFFF212720FFF75AFF13
:10542000FF21E220FFF756FFDFF830020121016083
:10543000DFF838020221017001BD80B5DFF81C02DF
:10544000002101600522DFF81C123020FFF769FF00
:105450000522DFF80C122A20FFF763FF0E2120201F
:10546000FFF738FF7D48012101608048012101706C
:1054700040F6FF7000900098411E00910028FAD17C
:1054800001BDF8B504000D00002679480078002819
:105490005AD0002D58D0202D28D22A0075480078E7
:1054A000754911EB4011200000F018F96B480021FC
:1054B000016070480078401C6E4908706D480078A3
:1054C000502802DB6B48002101706C48007807000F
:1054D00068480078FFB2B84202D1654800210170E7
:1054E0005E4801210160AE1930002EE020226148A3
:1054F0000078614911EB4011200000F0EFF82034F2
:10550000203D20365548002101605A480078401C53
:105510005849087057480078502802DB5548002148
:10552000017056480078070052480078FFB2B84230
:1055300003D14F480021017002E04D480121017064
:10554000464801210160A0E73000F2BD10B582B0ED
:1055500000A90720FFF7D1FE9DF800102720FFF7D4
:10556000B9FE9DF80000400632D53C48002101609C
:105570003F480078022824D02022404800783E4945
:1055800011EB40116120FFF7E0FE3C480078401C21
:105590003A49087039480078502802DB3748002122
:1055A000017034480078040034480078E4B2A04226
:1055B00003D12F480221017007E02D48012101701D
:1055C00003E0FF21E220FFF785FE2448012101606E
:1055D0009DF80000800629D52B480068002809D1D5
:1055E0002848002101602148007802281ED0FFF7DA
:1055F000FCFE1BE01D480078012801D0FFF71DFFCD
:105600002048006820301F4908601F480068401E7D
:105610001D490860114800210160202219480168D5
:10562000A020FFF77EFE0D48012101609DF80000DB
:10563000C0060ED5124801210170FF21E120FFF7BD
:1056400049FE1048002101600F4800210160FFF76A
:10565000CCFE13BD20BCBE0003000A003C18FE4374
:10566000040CFF1FFC0BFF1F306C0000171AFF1FFC
:105670001A1AFF1F181AFF1F800FFF1F191AFF1F8A
:105680001B1AFF1F8019FF1F8419FF1F10B504008C
:105690004FF4007094FBF0F101FB1041002903D09E
:1056A0001E210B48FCF7EBFA0A48046010BD38B520
:1056B00004000D00074800680749884203D03021E4
:1056C0000348FCF7DCFA64B2034840F8245031BDCB
:1056D0002C6B000008ED00E00000FF1F30B4002A32
:1056E00038D0D41DE40823000824B2FBF4F505FBF0
:1056F0001425002D0BD0022D21D024D3042D16D03B
:1057000019D3062D0BD00ED3072D04D022E00C7830
:105710000470491C401C0C780470491C401C0C7817
:105720000470491C401C0C780470491C401C0C7807
:105730000470491C401C0C780470491C401C0C78F7
:105740000470491C401C0C780470491C401C5B1EF2
:10575000002BDCD130BC7047DFF800F0F50DFF1FE7
:1057600040B2DFF8981331F8201040B20128C0F29F
:105770006B8140B2162880F26781DFF88423002312
:10578000137089B23D2904DADFF8742300235370C3
:1057900078E089B2792904DADFF8642301235370B1
:1057A00070E089B2B52904DADFF85423022353707C
:1057B00068E089B2F12904DADFF844230323537047
:1057C00060E089B2B1F5967F04DCDFF8342304236E
:1057D000537057E089B2B1F5B47F04DCDFF82023C1
:1057E000052353704EE089B2B1F5D27F04DCDFF8B7
:1057F00010230623537045E089B2B1F5F07F04DC35
:10580000DFF8FC22072353703CE089B2B1F5077F33
:1058100004DCDFF8EC220823537033E089B2B1F5E1
:10582000167F04DCDFF8D822092353702AE089B2FE
:10583000B1F5257F03DCB24A0A23537022E089B216
:10584000B1F5347F03DCAE4A0B2353701AE089B202
:10585000B1F5437F03DCAA4A0C23537012E089B2EE
:10586000B1F5527F03DCA64A0D2353700AE089B2DA
:10587000B1F5617F03DCA24A0E23537002E0A04A17
:105880000F23537089B21A2903DA9D4A00239370BB
:1058900069E089B2332903DA994A0123937062E0FF
:1058A00089B24C2903DA964A022393705BE089B2ED
:1058B000652903DA924A0323937054E089B27E2962
:1058C00003DA8F4A042393704DE089B2972903DAF3
:1058D0008B4A0523937046E089B2B02903DA884ADF
:1058E000062393703FE089B2C92903DA844A07236B
:1058F000937038E089B2E22903DA814A0823937071
:1059000031E089B2FB2903DA7D4A092393702AE04A
:1059100089B2B1F58A7F03DA794A0A23937022E0CB
:1059200089B2B1F5967F03DC754A0B2393701AE0B8
:1059300089B2B1F5A37F03DA714A0C23937012E0A8
:1059400089B2B1F5AF7F03DC6D4A0D2393700AE095
:1059500089B2B1F5BC7F03DA694A0E23937002E085
:10596000674A0F23937089B21A2903DA644A002325
:10597000D37069E089B2332903DA614A0123D37015
:1059800062E089B24C2903DA5D4A0223D3705BE0FE
:1059900089B2652903DA5A4A0323D37054E089B2E5
:1059A0007E2903DA564A0423D3704DE089B2972941
:1059B00003DA534A0523D37046E089B2B02903DAEB
:1059C0004F4A0623D3703FE089B2C92903DA4C4A13
:1059D0000723D37038E089B2E22903DA484A082362
:1059E000D37031E089B2FB2903DA454A0923D37029
:1059F0002AE089B2B1F58A7F03DA414A0A23D370DB
:105A000022E089B2B1F5967F03DC3D4A0B23D370C7
:105A10001AE089B2B1F5A37F03DA394A0C23D370B7
:105A200012E089B2B1F5AF7F03DC354A0D23D370A4
:105A30000AE089B2B1F5BC7F03DA314A0E23D37094
:105A400002E02F4A0F23D370704710B504002000E6
:105A500040B2FFF785FE2B48007810F0FD00294981
:105A600008702848007850F0100026490870264831
:105A7000B821017025480078C006FBD4234800787F
:105A8000C0F38100C0B20228F8D11D48C3781C4879
:105A900082781B4841781A480078FFF75DFE64B2AF
:105AA000164810EB8400807810F007001849087041
:105AB00064B2124810EB8400C07810F01F0050F060
:105AC000400014490870114800788006FBD50F4843
:105AD00000784006FBD50C48007810F03F000A49DA
:105AE00008700A480078C0F38100C0B20328F8D1DA
:105AF00064B2024830F82400C0B210BD440BFF1F4E
:105B00009C0BFF1F01400640004006400640064037
:105B1000044006400540064080B5CC480068B0F916
:105B2000000042F2107190FBF1F201FB12004FF401
:105B30007A7190FBF1F03030C5490870C3480068B5
:105B4000B0F900004FF47A7190FBF1F201FB120002
:105B5000642190FBF1F03030BD494870BB480068CB
:105B6000B0F90000642190FBF1F201FB12000A2160
:105B700090FBF1F03030B6498870B4480068B0F955
:105B800000000A2190FBF1F201FB12003030B04915
:105B9000C870AF4A02210020FEF773F8AB480068D6
:105BA000B0F9020042F2107190FBF1F201FB120019
:105BB0004FF47A7190FBF1F03030A5490870A3489A
:105BC0000068B0F902004FF47A7190FBF1F201FB2A
:105BD0001200642190FBF1F030309D4948709B48E1
:105BE0000068B0F90200642190FBF1F201FB1200A1
:105BF0000A2190FBF1F03030954988709348006895
:105C0000B0F902000A2190FBF1F201FB12003030E2
:105C10008F49C8708E4A03210020FEF732F88B4866
:105C20000068B0F9040042F2107190FBF1F201FB40
:105C300012004FF47A7190FBF1F030308449087013
:105C400082480068B0F904004FF47A7190FBF1F2D9
:105C500001FB1200642190FBF1F030307C49487068
:105C60007A480068B0F90400642190FBF1F201FB6E
:105C700012000A2190FBF1F03030754988707348AA
:105C80000068B0F904000A2190FBF1F201FB120058
:105C900030306F49C8706E4A04210020FDF7F1FFD3
:105CA0006A480068B0F9060042F2107190FBF1F208
:105CB00001FB12004FF47A7190FBF1F0303064492F
:105CC000087062480068B0F906004FF47A7190FBE2
:105CD000F1F201FB1200642190FBF1F030305C49DD
:105CE00048705A480068B0F90600642190FBF1F250
:105CF00001FB12000A2190FBF1F03030544988700A
:105D000052480068B0F906000A2190FBF1F201FB4D
:105D1000120030304E49C8704D4A05210020FDF771
:105D2000B0FF4A480068B0F9080042F2107190FBD9
:105D3000F1F201FB12004FF47A7190FBF1F0303078
:105D40004349087041480068B0F908004FF47A717F
:105D500090FBF1F201FB1200642190FBF1F0303076
:105D60003B49487039480068B0F90800642190FB4D
:105D7000F1F201FB12000A2190FBF1F030303449BE
:105D8000887032480068B0F908000A2190FBF1F2EF
:105D900001FB120030302E49C8702D4A0621002028
:105DA000FDF76FFF29480068B0F90A0042F2107150
:105DB00090FBF1F201FB12004FF47A7190FBF1F0CD
:105DC00030302349087021480068B0F90A004FF4C8
:105DD0007A7190FBF1F201FB1200642190FBF1F06B
:105DE00030301B49487019480068B0F90A00642136
:105DF00090FBF1F201FB12000A2190FBF1F0303030
:105E00001349887011480068B0F90A000A2190FB14
:105E1000F1F201FB120030300D49C8700C4A072125
:105E20000020FDF72EFF002200210A48B0F90000F3
:105E3000322390FBF3F000B2FEF78BF802A20021B0
:105E40003C20FDF75CFF01BD530000008819FF1FD7
:105E5000D80EFF1F141AFF1F0000000000000000F2
:105E6000002F000000000700070000147F147F14BB
:105E700000242A7F2A120062640813230036495541
:105E8000225000000503000000001C224100000019
